:020000040800F2
:100000000000022021170008A5070008A707000824
:10001000A9070008AB070008AD07000800000000B2
:10002000000000000000000000000000AF07000812
:10003000B107000800000000B3070008B50700087A
:100040007117000871170008711700087117000870
:100050007117000871170008711700087117000860
:100060007117000871170008711700087117000850
:100070007117000871170008711700087117000840
:100080007117000871170008711700087117000830
:100090007117000871170008711700087117000820
:1000A0007117000871170008711700087117000810
:1000B0007117000871170008711700087117000800
:1000C00071170008711700087117000871170008F0
:1000D00071170008711700087117000871170008E0
:1000E00071170008711700087117000871170008D0
:1000F00071170008711700087117000871170008C0
:1001000071170008711700087117000871170008AF
:10011000711700087117000871170008711700089F
:10012000711700087117000871170008711700088F
:10013000711700087117000871170008711700087F
:10014000711700087117000871170008711700086F
:10015000711700087117000871170008711700085F
:10016000711700087117000871170008711700084F
:1001700071170008711700087117000800000000CF
:08018000711700087117000857
:1001880010B5054C237833B9044B13B10448AFF3C9
:1001980000800123237010BD0C0000200000000027
:1001A800CC17000808B5034B1BB103490348AFF34C
:1001B800008008BD0000000010000020CC170008D7
:1001C80053B94AB9002908BF00281CBF4FF0FF31B6
:1001D8004FF0FF3000F072B9ADF1080C6DE904CEB4
:1001E80000F006F8DDF804E0DDE9022304B070470A
:1001F8002DE9F047089E04468846002B4BD18A42D9
:10020800154667D9B2FA82F24AB1C2F1200701FA5B
:1002180002F320FA07F7954047EA030894404FEAAB
:10022800154E230CB8FBFEF71FFA85FC0EFB17884A
:1002380043EA084307FB0CF1994209D9EB1807F187
:10024800FF3080F01B81994240F21881023F2B4415
:100258005B1AA4B2B3FBFEF00EFB103344EA03446E
:1002680000FB0CFCA44509D92C1900F1FF3380F0E0
:100278000781A44540F2048102382C4440EA074033
:10028800A4EB0C0400271EB1D4400023C6E90043A8
:100298003946BDE8F0878B4209D9002E00F0EB8083
:1002A8000027C6E9000138463946BDE8F087B3FAA9
:1002B80083F7002F47D18B4202D3824200F2FA80A3
:1002C800841A61EB030301209846002EE0D0C6E9AA
:1002D8000048DDE702B9FFDEB2FA82F2002A40F0F8
:1002E8008F80491B4FEA154E1FFA85F80127B1FB8D
:1002F800FEFC230C0EFB1C1143EA014308FB0CF126
:10030800994207D9EB180CF1FF3002D2994200F25A
:10031800CD808446591AA3B2B1FBFEF00EFB10142F
:1003280043EA044408FB00F8A04507D92C1900F15A
:10033800FF3302D2A04500F2B6801846A4EB0804A9
:1003480040EA0C409FE7C7F1200CBB4022FA0CFEA4
:100358004EEA030E01FA07F420FA0CF521FA0CF321
:100368004FEA1E482543B3FBF8F92C0C08FB193358
:100378001FFA8EFA44EA034309FB0AF49C4202FA84
:1003880007F200FA07F10BD91EEB030309F1FF305E
:1003980080F087809C4240F28480A9F1020973446E
:1003A8001B1BADB2B3FBF8F008FB103345EA03445E
:1003B80000FB0AFAA24508D91EEB040400F1FF333A
:1003C8006BD2A24569D90238744440EA0940A0FBBF
:1003D8000289A4EB0A044C45C2464B4654D351D07B
:1003E800002E69D0B1EB0A0564EB030404FA0CFC97
:1003F800FD40FC404CEA0505C6E90054002747E7E4
:10040800C2F1200320FA03F7954001FA02F021FA1D
:1004180003F34FEA154E3843010CB3FBFEF71FFAFE
:1004280085F80EFB173341EA034107FB08F38B42BB
:1004380004FA02F407D9691807F1FF3C2FD28B425E
:100448002DD9023F2944CB1A81B2B3FBFEF00EFB33
:10045800103341EA034100FB08F38B4207D96918BE
:1004680000F1FF3C17D28B4215D902382944C91A2A
:1004780040EA07473BE73746304609E70746E7E6DD
:100488001846FBE64145ABD2B8EB020A69EB0E020F
:1004980001381346A4E76046E9E7184695E767463A
:1004A800D1E781467CE702382C4447E7ACF1020CDF
:1004B8002B442FE7384608E73746E9E6704700BF80
:1004C80000B583B04FF47A73009313460A46014689
:1004D800024800F057FD03B05DF804FB2800002037
:1004E80008B502468021024800F016FB08BD00BF8F
:1004F8000004024030B587B00024019402940394AC
:100508000494059400940E4B1A6B42F002021A638D
:100518001B6B03F002030093009B0A4D22468021C7
:10052800284600F0F9FA80230193012302930394EB
:10053800049401A9284600F00BFA07B030BD00BFAB
:10054800003802400004024008B50948094B03601E
:100558004CF25033436000238360C3604FF4804201
:10056800026143618361C361036200F031FC08BD2D
:10057800280000200054004010B594B0302200211B
:1005880008A801F017F9002403940494059406942C
:1005980007940194154B1A6C42F080521A641B6C34
:1005A80003F080530193019B0294114B1A6842F4A3
:1005B80080421A601B6803F480430293029B022363
:1005C800089301230B9310230C930E9408A800F0B2
:1005D80093FD0F23039304940594069407942146EE
:1005E80003A800F0D3FF14B010BD00BF00380240CC
:1005F8000070004000B59BB000F00EF9FFF7BCFF9B
:10060800FFF778FFFFF7A0FF0A2000F031F90C4B45
:10061800CDF85D300B4BCDF8613004232122002149
:100628000DEB030000F010F8642000F021F940F60B
:10063800CC7240F2991101A800F04CF8FEE700BF17
:10064800C9040008E90400082DE9F04182B0D0F897
:100658005940002C3AD0D0F85D80B8F1000F37D05F
:100668001E4617460C4605460020C04700228DF856
:1006780004208DF80570600060F07F00C0B285F836
:10068800580085F8557005E091008C1D11446C5494
:100698000132D2B20F2AF7D9FA2385F85030D5F8AB
:1006A8005930022201A9984701248DF804408DF899
:1006B800056085F85660D5F85930022201A995F8E9
:1006C80058009847204602B0BDE8F0810020FAE7BC
:1006D8000020F8E708B5A0F85110A0F85320D0F88A
:1006E8005930052200F1500190F85800984708BD8C
:1006F80082B0002100910B4B5A6C42F480425A643C
:100708005A6C02F480420092009A01911A6C42F0ED
:1007180080521A641B6C03F080530193019B02B052
:10072800704700BF0038024030B589B000230393FA
:1007380004930593069307930268154B9A4201D0D8
:1007480009B030BD00250195124C236B43F002031C
:100758002363236B03F002030193019B4FF410738F
:10076800039312230493012305930323069304237D
:10077800079303A9084800F0EBF80295236C43F4AB
:1007880000132364236C03F400130293029BD7E73E
:100798000054004000380240000402407047FEE761
:1007A800FEE7FEE7FEE770477047704708B500F0C0
:1007B8004DF808BD054BD3F8882042F47002C3F801
:1007C80088204FF000629A60704700BF00ED00E09B
:1007D80010B504460E4B18784FF47A73B3FBF0F358
:1007E8000C4A1068B0FBF3F000F09CF868B90F2CC5
:1007F80001D901200AE0002221464FF0FF3000F025
:100808005DF8034B5C60002000E0012010BD00BFD4
:10081800040000200000002008B50B4B1A6842F4C1
:1008280000721A601A6842F480621A601A6842F408
:1008380080721A60032000F02FF80020FFF7C8FF2D
:10084800FFF756FF002008BD003C0240034A11682C
:10085800034B1B780B441360704700BF7C000020DB
:1008680004000020014B1868704700BF7C0000207E
:1008780038B50446FFF7F6FF0546B4F1FF3F02D04E
:10088800044B1B781C44FFF7EDFF401BA042FAD332
:1008980038BD00BF04000020074AD36823F4E06392
:1008A8001B041B0C000200F4E060184340F0BF601A
:1008B80040F40030D060704700ED00E030B4174BD2
:1008C800DB68C3F30223C3F10704042C28BF042404
:1008D8001D1D062D18D9033B4FF0FF3505FA04F40A
:1008E80021EA0401994005FA03F322EA03031943B4
:1008F80000280BDB0901C9B200F1604000F5614036
:1009080080F8001330BC70470023E5E700F00F00C3
:100918000901C9B2024B1954F4E700BF00ED00E029
:1009280014ED00E00138B0F1807F0AD2064B586020
:10093800064AF02182F823100020986007221A60E6
:1009480070470120704700BF10E000E000ED00E0B4
:1009580000230F2B00F2D780F0B583B039E00722CF
:1009680000E00022AA403A430234674D45F82420AB
:10097800664A1468F24302EA04054F6817F4803F98
:1009880001D046EA0405614C2560646802EA040562
:100998004F6817F4003F01D046EA04055B4C6560D8
:1009A800A46802EA04054F6817F4801F01D046EADC
:1009B8000405564CA560E46822404D6815F4001FF4
:1009C80001D046EA0402514CE26001330F2B00F2D9
:1009D800988001229A400C6804EA0206B242F4D1D7
:1009E8004C68651E012D03D9112C01D0122C12D18F
:1009F80085685F000324BC4025EA0405CC68BC4038
:100A08002C438460456825EA02054C68C4F300124B
:100A18009A402A434260C4685F000322BA40D24326
:100A280014408D68BD402543C5604C68022C01D038
:100A3800122C13D1DD08083550F825E003F007041F
:100A48004FEA840C0F2404FA0CF42EEA040E0C6905
:100A580004FA0CF444EA0E0440F8254004682240E5
:100A68004C6804F00304BC40224302604A6812F058
:100A7800805FAAD000220192254A546C44F4804435
:100A88005464526C02F480420192019A9C08A51C9D
:100A98001D4A52F8257003F0030295000F22AA4060
:100AA80027EA02071B4A90423FF45BAF02F58062D7
:100AB80090421AD002F58062904218D002F5806206
:100AC800904216D002F58062904214D002F58062FE
:100AD800904212D002F58062904210D002F58062F6
:100AE80090423FF43CAF08223CE701223AE7022259
:100AF80038E7032236E7042234E7052232E70622E4
:100B080030E703B0F0BD704700380140003C0140B9
:100B1800003802400000024012B9090481617047A0
:100B28008161704703685A6912F4806F11D06FF4BD
:100B380080625A6100230363202280F83D2080F8F8
:100B48003E30026C42F00402026480F83C3001201E
:100B5800704700207047F8B506460C4617461D46F4
:100B680022E0FFF77FFE069BC01AA84200D8DDB935
:100B780000233363202286F83D2086F83E30326C0D
:100B880042F02002326486F83C3001201AE03368D3
:100B98005B6924EA03039BB2B3FA83F35B099F42C0
:100BA8000FD1B5F1FF3FDCD1C4F30743012BEED0E1
:100BB80033689B6924EA03039BB2B3FA83F35B09A6
:100BC800EDE70020F8BDF8B504460D4616461F4669
:100BD8003CE01A6842F400721A6023686FF480627D
:100BE8005A6100232363202284F83D2084F83E3094
:100BF800226C42F00402226484F83C30012033E085
:100C0800FFF730FEC01BB04200D8FEB900232363B3
:100C1800202284F83D2084F83E30226C42F02002E5
:100C2800226484F83C3001201EE023685B6925EAD1
:100C380003039BB2003318BF0123A3B123685A6989
:100C480012F4806FC5D1B6F1FF3FD9D1C5F3074380
:100C5800012BEAD023689B6925EA03039BB2003382
:100C680018BF0123E9E70020F8BD0000F0B583B004
:100C780004460F4615461E46C36A082B0DD0012BA5
:100C88000BD013F5803F08D0036B122B0AD10268F2
:100C9800136843F48073136004E02268136843F414
:100CA8008073136000962B4600224FF001112046F6
:100CB800FFF751FF58B123681B6813F4807F2BD0CE
:100CC8004FF4007323640323184603B0F0BD23696F
:100CD800B3F5804F0ED1236807F0FE071F61334636
:100CE8002A460F492046FFF76EFF03460028EBD03F
:100CF8000123E9E7FB11226803F0060343F0F00340
:100D0800136133462A4607492046FFF75CFF28B996
:100D18002368FFB21F61E2E70323D5E70123D3E786
:100D2800020001000800010070B504460D46164691
:100D380023685B6913F0800F1CD12046FFF7F2FE91
:100D4800D0B9B5F1FF3FF3D0FFF78CFD801BA84267
:100D580001D8002DECD100232363202284F83D2004
:100D680084F83E30226C42F02002226484F83C3041
:100D7800012000E0002070BD0120FCE770B50446AA
:100D88000D46164623685B6913F0040F1CD12046F4
:100D9800FFF7C8FED0B9B5F1FF3FF3D0FFF762FD0A
:100DA800801BA84201D8002DECD100232363202208
:100DB80084F83D2084F83E30226C42F02002226400
:100DC80084F83C30012000E0002070BD0120FCE7E1
:100DD800002800F0C880F8B5044690F83D30002B94
:100DE80075D0242384F83D302268136823F001036A
:100DF80013602268136843F4004313602268136881
:100E080023F40043136000F077FC6268584B9A4261
:100E180062D8584B98428CBF00230123002B40F026
:100E2800A480554BA3FB00239B0C21684A6822F041
:100E38003F021A434A6025682A6A22F03F02666820
:100E48004B498E424ED8013313432B622568E9691A
:100E580021F44F4121F0FF016368454A93424BD882
:100E680001385B00B0FBF3F30133C3F30B03042B2E
:100E780038BF04230B43EB6121680B6823F0C003E0
:100E8800E269206A024313430B6021688B6823F4EC
:100E9800034323F0FF032269E068024313438B6096
:100EA8002168CB6823F0FF036269A06902431343FA
:100EB800CB602268136843F00103136000202064AC
:100EC800202384F83D30206384F83E00F8BD80F884
:100ED8003C30FFF729FC84E7284B98428CBF00235D
:100EE80001239BE74FF4967101FB03F32449A1FB0F
:100EF80003139B090133A7E7A268BAB9461E03EB9F
:100F08004307B6FBF7F60136C6F30B06B6FA86F6C4
:100F1800760936BBC2B9013803EB4303B0FBF3F3E0
:100F28000133C3F30B0242F40043A3E7461E03EB6D
:100F3800830707EB8707B6FBF7F60136C6F30B0600
:100F4800B6FA86F67609E4E7013803EB830303EB88
:100F58008303B0FBF3F20132C2F30B0242F44043C5
:100F680088E7012386E7012070470120AEE700BF2C
:100F7800A08601007F841E0083DE1B43FF083D001E
:100F8800D34D62102DE9F04184B004460E469046D8
:100F98001F46FFF767FC94F83D30DBB2202B04D0E6
:100FA8000226304604B0BDE8F081054600901923BA
:100FB80001224F492046FFF7CEFD002840F09180DE
:100FC80094F83C30012B00F08E80012384F83C30EB
:100FD80023681A6812F0010F03D11A6842F001025F
:100FE8001A602268136823F400631360212384F8CD
:100FF8003D30102384F83E3000232364C4F8248055
:101008006785638D23853B4BE3622B460A9A3146FD
:101018002046FFF72BFE0646002866D100230393DF
:1010280023685A6903929B690393039B12E0236C1C
:10103800042B01D00126B4E72268136843F4007337
:1010480013600126ADE72A460A992046FFF796FE67
:1010580000282CD1238D002B35D02A460A9920460A
:10106800FFF762FE0028E2D1626A236812781A61EB
:10107800616A4B1C6362638D013B9BB26385238D60
:10108800013B9BB223852268506910F0040FDAD027
:10109800002BD8D04B781361636A01336362638D88
:1010A800013B9BB26385238D013B2385CBE7236CF2
:1010B800042B01D0012674E72268136843F40073F7
:1010C800136001266DE72268136843F40073136008
:1010D800202384F83D30002384F83E3084F83C30E7
:1010E8005FE702265DE702265BE7012659E700BFB6
:1010F800020010000000FFFF002800F0E48170B536
:1011080082B00446036813F0010F3BD0A74B9B68DD
:1011180003F00C03042B2CD0A44B9B6803F00C03A6
:10112800082B21D06368B3F5803F4FD0B3F5A02FCB
:1011380052D09E4B1A6822F480321A601A6822F440
:1011480080221A606368002B50D0FFF78BFB05469E
:10115800964B1B6813F4003F14D1FFF783FB401B29
:101168006428F5D90320B3E1904B5B6813F4800F32
:10117800D8D08E4B1B6813F4003F03D06368002B54
:1011880000F0A381236813F0020F55D0874B9B68AA
:1011980013F00C0F3ED0854B9B6803F00C03082B13
:1011A80033D0E368002B68D0814B01221A60FFF727
:1011B80059FB05467D4B1B6813F0020F54D1FFF70E
:1011C80051FB401B0228F5D9032081E1774A1368B7
:1011D80043F480331360B5E7744B1A6842F48022F5
:1011E8001A601A6842F480321A60ABE7FFF73AFBDC
:1011F80005466E4B1B6813F4003FC3D0FFF732FB64
:10120800401B6428F5D9032062E1684B5B6813F43E
:10121800800FC6D1654B1B6813F0020F04D0E3683A
:10122800012B01D0012053E1604A136823F0F80331
:10123800216943EAC1031360236813F0080F40D003
:10124800636963B35B4B01221A60FFF70BFB05462A
:10125800564B5B6F13F0020F33D1FFF703FB401BB4
:101268000228F5D9032033E1504A136823F0F80324
:10127800216943EAC1031360DEE74D4B00221A607F
:10128800FFF7F0FA0546494B1B6813F0020FD3D05D
:10129800FFF7E8FA401B0228F5D9032018E1454B6F
:1012A80000221A60FFF7DEFA0546404B5B6F13F029
:1012B800020F06D0FFF7D6FA401B0228F5D9032003
:1012C80006E1236813F0040F79D0384B1B6C13F038
:1012D800805F33D100230193344B1A6C42F0805263
:1012E8001A641B6C03F080530193019B0125324B58
:1012F8001B6813F4807F23D0A368012B34D0052BFF
:1013080038D02A4B1A6F22F001021A671A6F22F09E
:1013180004021A67A368002B36D0FFF7A3FA064623
:10132800224B1B6F13F0020F48D1FFF79BFA801B6B
:1013380041F288339842F3D90320C9E00025D6E763
:101348001D4A136843F480731360FFF78BFA06464F
:10135800194B1B6813F4807FCED1FFF783FA801BEB
:101368000228F5D90320B3E0104A136F43F00103B4
:101378001367CFE70D4B1A6F42F004021A671A6F12
:1013880042F001021A67C5E7FFF76CFA0646074BF9
:101398001B6F13F0020F11D0FFF764FA801B41F2A4
:1013A80088339842F3D9032092E000BF0038024006
:1013B80000004742800E474200700040EDB9A36923
:1013C800002B00F08480454A926802F00C02082A3B
:1013D80051D0022B17D0424B00221A60FFF742FA75
:1013E80004463E4B1B6813F0007F42D0FFF73AFAE1
:1013F800001B0228F5D903206AE0384A136C23F051
:1014080080531364DBE7364B00221A60FFF72AFA91
:101418000546324B1B6813F0007F06D0FFF722FA0F
:10142800401B0228F5D9032052E0E369226A1343DE
:10143800626A43EA8213A26A5208013A43EA024303
:10144800E26A43EA0263254A5360254B01221A6087
:10145800FFF708FA0446214B1B6813F0007F06D1FA
:10146800FFF700FA001B0228F5D9032030E000201E
:101478002EE000202CE0012B2CD0184B5B6803F4E5
:101488008001E269914201D0012021E003F03F028E
:10149800216A8A4201D001201AE0616A47F6C072C7
:1014A8001A408A4201D0012012E003F44032A16AB6
:1014B8008A4201D001200BE003F07063E26A934294
:1014C8000AD0012004E001207047012000E000203C
:1014D80002B070BD0120FBE70020F9E700380240A8
:1014E80060004742264B9B6803F00C03042B44D052
:1014F800082B01D0234870472DE9F04B204B5A6840
:1015080002F03F025B6813F4800F13D01C4B59683C
:10151800C1F3881100231C48A1FB0001FEF750FE0F
:10152800174B5B68C3F3014301335B00B0FBF3F077
:10153800BDE8F08B124B5B68C3F388131E46002787
:101548005C010025E41A65EB0705A90141EA9461ED
:10155800A001001B61EB0501CB0043EA5073C400F6
:10156800A01943EB07018B0243EA905384022046FB
:1015780019460023FEF724FED2E70348704700BF50
:10158800003802400024F40040787D01002800F073
:101598009E8070B50446504B1B6803F00F038B42C6
:1015A80009D2CBB24C4A1370136803F00F038B4275
:1015B80001D0012070BD236813F0020F17D013F07B
:1015C800040F04D0454A936843F4E05393602368BA
:1015D80013F0080F04D0414A936843F460439360C2
:1015E8003E4A936823F0F003A068034393600D46D6
:1015F800236813F0010F32D06368012B21D09A1EA3
:10160800012A25D9354A126812F0020F61D03349F0
:101618008A6822F0030213438B60FFF723F906461A
:101628002E4B9B6803F00C036268B3EB820F16D055
:10163800FFF718F9801B41F288339842F0D903204C
:10164800B8E7264A126812F4003FE0D10120B1E75A
:10165800224A126812F0007FD9D10120AAE71E4B56
:101668001B6803F00F03AB4209D9EAB21A4B1A7090
:101678001B6803F00F03AB4201D001209AE72368EF
:1016880013F0040F06D0154A936823F4E053E16879
:101698000B439360236813F0080F07D00F4A936831
:1016A80023F46043216943EAC1039360FFF71AFFFB
:1016B8000A4B9B68C3F30313094AD35CD840094B10
:1016C8001860094B1868FFF783F8002072E70120BB
:1016D800704701206EE700BF003C0240003802401E
:1016E800E41700080000002008000020014B1868DB
:1016F800704700BF0000002008B5FFF7F7FF044B54
:101708009B68C3F38223034AD35CD84008BD00BF5B
:1017180000380240F4170008DFF834D0002103E055
:101728000C4B5B58435004310B480C4B42189A42FF
:10173800F6D30B4A02E0002342F8043B094B9A42D5
:10174800F9D3FFF737F800F011F8FEF753FF7047A9
:10175800000002200C180008000000200C000020E7
:101768000C00002080000020FEE7000070B50D4E40
:101778000D4CA41BA4100025A54209D10B4E0C4CFE
:1017880000F020F8A41BA4100025A54205D170BDC7
:1017980056F8253098470135EEE756F82530984732
:1017A8000135F2E7041800080418000804180008B6
:1017B8000818000802440346934200D1704703F812
:1017C800011BF9E7F8B500BFF8BC08BC9E46704796
:0C17D800F8B500BFF8BC08BC9E46704786
:1017E40000000000000000000102030406070809CD
:0817F4000000000001020304E3
:0817FC00FCE9FF7F0100000081
:04180400AD0100082A
:04180800890100084A
:0C180C000024F4000100000010000000A7
:0400000508001721B7
:00000001FF
